:020000040800F2
:10000000C00600209101000869150008B11400081D
:1000100065150008C90200089516000800000000D8
:100020000000000000000000000000007115000842
:10003000CD020008000000006D15000875150008CD
:10004000AB010008AB010008AB010008AB010008E0
:10005000AB010008AB010008AB010008AB010008D0
:10006000AB010008AB010008AB010008AB010008C0
:10007000AB010008AB010008AB010008AB010008B0
:10008000AB010008AB010008AB010008AB010008A0
:10009000AB010008AB010008AB010008AB01000890
:1000A000AB010008AB010008AB010008AB01000880
:1000B000AB010008AB010008AB010008AB01000870
:1000C000AB010008AB010008AB010008AB01000860
:1000D000AB010008AB01000889160008AB0100085D
:1000E000AB010008AB010008AB01000800F002F80A
:1000F00000F03FF80AA090E8000C82448344AAF183
:100100000107DA4501D100F034F8AFF2090EBAE880
:100110000F0013F0010F18BFFB1A43F0010318473B
:100120002C1700004C170000103A24BF78C878C183
:10013000FAD8520724BF30C830C144BF04680C60ED
:10014000704700000023002400250026103A28BF35
:1001500078C1FBD8520728BF30C148BF0B60704739
:10016000732900F07380002070471FB51FBD10B5C4
:1001700010BD00F06FF81146FFF7F7FF01F008FB24
:1001800000F08DF803B4FFF7F2FF03BC00F094F821
:100190000948804709480047FEE7FEE7FEE7FEE71B
:1001A000FEE7FEE7FEE7FEE7FEE7FEE70448054957
:1001B000054A064B7047000079150008ED0000085D
:1001C000C0000020C0060020C0020020C0020020A5
:1001D00070B50C460546012A05D02878800600D562
:1001E000EA69002302E0012305E05B1C934202D28E
:1001F000E05C0028F9D1A869E618C01AA861286A4D
:10020000184428622846AFF3008004E0D5E90121B4
:1002100014F8010B9047B442F8D32846AFF300809E
:1002200070BD70477047704710B5436913B1AFF3A5
:10023000008001E0FFF7CCFF012010BD127800F133
:1002400024010A7000224A700122EDE711684FF084
:10025000FF32E9E7754600F02BF8AE460500694627
:10026000534620F00700854618B020B5FFF79EFFE3
:10027000BDE820404FF000064FF000074FF00008A7
:100280004FF0000BAC46ACE8C009ACE8C009ACE8E4
:10029000C009ACE8C00921F007018D46704710B5D0
:1002A0000446AFF300802046BDE81040FFF76ABF68
:1002B000004870471000002001491820ABBEFEE73F
:1002C0002600020070470000FEE7000070470000B3
:1002D00001F0E2B910B540F27004C2F20004204609
:1002E00001F03CFA204643210D22012301F016FAC9
:1002F00041F2883000F090F8204643210D2200237F
:1003000001F00CFA6420BDE8104000F085B8000050
:10031000EFF3108072B600BFFEE70000014690F8D0
:100320002100022816D10868D1E90FC3026822F023
:100330000E020260026822F001020260012000FA4F
:1003400003F2CCF8042081F821000020002281F87B
:1003500020207047042088630120002281F820209B
:100360007047000080B590F82110022924D102685E
:10037000116821F00E0111602F211368C4F20201EF
:100380008A4240F20401C4F2020123F00103136027
:1003900016DD3023C4F202039A421DD04423C4F276
:1003A00002039A421CD05823C4F202039A421DD180
:1003B0004FF4803322E000BF04218163012080BD1F
:1003C0000823C4F202039A420ED01C23C4F2020393
:1003D0009A420BD1102311E04FF480730EE000BF5E
:1003E0004FF480530AE000BF012307E001F1680CDD
:1003F0004FF08073624508BF4FF480130B600121FA
:1004000080F82110426B002180F820100AB190473B
:100410000021084680BD0000B0B5044600F024F974
:10042000054640F20000C2F200000078611C18BFCF
:10043000044400BF00F018F9401BA042FAD3B0BD3D
:100440002DE9F04F82B00E68002E00F0038141F2DA
:100450000042C4F20102042340F2004E904208BF61
:1004600003234FF6FF7CC4F2010E00930024012306
:10047000C1F2100C4FF0000A4FF0000949E000BF34
:10048000012704F00C030F229A402BEA020207FA1C
:1004900003F34FEA9A051A4346F82520D1F804B031
:1004A00040F20C455FEACB22DEF8082054BF22EA76
:1004B000080242EA0802C4F20105CEF808202A68C0
:1004C0005FEA8B2354BF22EA080242EA08022A604C
:1004D0005FEA8B33DEF8042054BF22EA080242EAC6
:1004E00008025FEACB33CEF80420DEF800204FF09C
:1004F000010354BF22EA080242EA0802CEF80020B3
:100500000E680AF1010A36FA0AF204F1040400F056
:10051000A18003FA0AF816EA080FF1D04E68664582
:1005200012DC122E56D8DFE806F0350B454955553A
:1005300055555555555555555555554D510000BFB7
:10054000D1F80C9046E000BF4FF6FF72C1F22102D5
:1005500096420FDC0022C1F2110296421AD000220C
:10056000C1F21202964215D00022C1F22102964237
:1005700010D02FE00022C1F2220296420AD00022BF
:10058000C1F23102964205D00022C1F232029642F7
:1005900020D100BF8A684AB1012A14BFC0F8148074
:1005A000C0F810804FF0080914E000BF4FF00409B4
:1005B00010E000BFCA6802F108090BE04FF0000923
:1005C00008E000BFCA6802F1040903E0CA6802F14A
:1005D0000C0900BF22460646BAF1080F24BF203A94
:1005E000043637680F25954027EA050509FA02F217
:1005F0002A433260CA79D2067FF582AF41F21803EE
:10060000C4F202031A68AEF57E7642F001021A6067
:100610001A6802F001020192019A2AF0030256F8C8
:1006200002B040F60002C4F20102904210D040F63F
:100630000042C4F2010290423FF422AF41F20002B4
:10064000C4F20102009F904208BF022719E700BFD1
:10065000002716E702B0BDE8F08F0000002A08BFAF
:10066000090401617047000040F2BC00C2F20000C2
:100670000068704740F2000040F2BC01C2F2000086
:10068000C2F2000100780A68104408607047000058
:1006900080B542F20000C4F20200016841F010018E
:1006A0000160032000F08EF8002000F005F800F053
:1006B00027F8002080BD000070B540F20006C2F2AD
:1006C000000640F208013278C2F200014FF47A735A
:1006D0000968B3FBF2F20446B1FBF2F1084600F000
:1006E00063FB0F2C4FF0010508D838B94FF0FF30ED
:1006F00021460022002500F039F87460284670BDBC
:1007000082B041F21800C4F202000168022241F0F6
:1007100001010160016801F0010101910199416845
:1007200041F080514160406800F080500090009896
:100730000420C4F20100016862F31A61016002B092
:1007400070470000002848BF7047C1B200F01F008A
:10075000012202FA00F04EF20012CEF2000242EA4A
:10076000D10121F0030108607047000010B54EF67A
:100770000C5CCEF2000CDCF80030C3F3022E8EF0DD
:100780000704042C28BF0424BEF103034FF0FF3EEE
:100790000EFA04F438BF0023A14399400EFA03F384
:1007A0009A43114300F00F0200F160430901043A3B
:1007B00003F564436244002848BF02F10C0319703A
:1007C00010BD00004EF60C51CEF200010A684FF643
:1007D000FF031A4060F30A2242F0806040F0FD708F
:1007E000086070472DE9F04381B0002800F0858053
:1007F00042F20008C4F202080446D8F800000D4690
:1008000000F0070088420CD2D8F8000020F0070062
:100810002843C8F80000D8F8000000F00700A842FC
:100820006BD1206841F204098107C4F2020917D58F
:10083000410705D5D9F8001041F4E061C9F800106E
:10084000010705D5D9F8001041F46051C9F800102E
:10085000D9F80010A26821F0F0011143C9F8001086
:10086000C00741D1D8F8000000F00700A8420CD919
:10087000D8F8000020F007002843C8F80000D8F896
:10088000000000F00700A84237D12068410707D5D3
:10089000D9F80010E26821F4E0611143C9F80010B2
:1008A000000708D5D9F80000216920F4605040EA1B
:1008B000C100C9F80000D9F8002002F00C00082897
:1008C00041F20020C0F27A0050D141F63A03C2F35F
:1008D0008341C0F60003595CD2033BD440F60010BC
:1008E000C0F23D00484341E0606802280AD0012878
:1008F0002AD159F8041C890308D4012001B0BDE8AD
:10090000F08300BF59F8041C8901F6D5D9F800100E
:1009100021F003010843C9F80000FFF7A5FE0646D1
:1009200041F28837D9F80000616800F00C00B0EBA4
:10093000810F97D0FFF798FE801BB842F2D90320B1
:1009400001B0BDE8F08300BF59F8041C8907D4D575
:10095000DCE700BFD9F8002041F63803C2F340427B
:10096000C0F600039A5C4843B0FBF2F0D9F80010DF
:1009700041F62002C1F30311C0F60002515C40F2BF
:10098000080220FA01F140F20400C2F200000068FF
:10099000C2F200021160FFF78FFE002001B0BDE837
:1009A000F083000040F2080041F20401C2F20000AE
:1009B000C4F202010068096841F63002C1F3022165
:1009C000C0F60002515CC8407047000040F20800C9
:1009D00041F20401C2F20000C4F202010068096899
:1009E00041F63002C1F3C221C0F60002515CC8409A
:1009F000704700002DE9F04182B0002868D004461D
:100A0000007841F20006C007C4F2020625D07068E3
:100A100000F00C0004281BD0706800F00C000828BF
:100A200002D17068C00313D46068002800F06881A8
:100A3000B0F5A02F00F07C81B0F5803F00F07C8104
:100A4000306820F480303060306820F4802076E117
:100A50003068800301D56068D0B32078800718D54E
:100A6000706810F00C0F07D0706800F00C000828B8
:100A70006ED17068C0036BD43068800702D52069DE
:100A8000012825D13068616920F0F80040EAC100F2
:100A90003060207800071FD42078400732D4E56901
:100AA00095B1706800F00C00082840F08F80012D8F
:100AB0000ED07068216A00F480328A4208D1616ADF
:100AC00000F47010884203D1002002B0BDE8F0812C
:100AD000012002B0BDE8F081A069002862D00020AA
:100AE000C4F242200121C0F88014FFF7BDFD054685
:100AF000706A800700F18C80FFF7B6FD401B02286A
:100B0000F6D92AE1F06910F0805808D1F06940F078
:100B10008050F061F06900F080500090009847F23A
:100B20000007C4F200073868C00529D4386840F4CB
:100B300080703860FFF798FD054600BF3868C00533
:100B40001ED4FFF791FD401B6428F7D905E100BFD3
:100B50002069002840F20000C4F2422000F08280A8
:100B600001210160FFF780FD054600BF3068800766
:100B70003FF588AFFFF778FD401B0228F6D9ECE07F
:100B8000E068002800F08080052800F097800128A8
:100B900000F09880306A20F001003062306A20F066
:100BA000040092E00020C4F242200021C0F880142A
:100BB000FFF75AFD054600BF706A80077FF56CAFEE
:100BC000FFF752FD401B0228F6D9C6E00027C4F209
:100BD000422700203866FFF747FD022D05460BD15E
:100BE0003068800140F1BE80FFF73EFD401B0228C7
:100BF0004FF00300F4D968E7306880017FF564AFF7
:100C0000FFF732FD401B02284FF00300F4D95CE7E8
:100C100040F20800C2F20000006844F6D351C1F26D
:100C20006201A0FB0101480A019000BF00BF0198CA
:100C3000411E002801913FF42FAF00BF0198411ED3
:100C4000002801913FF428AF00BF0198411E002801
:100C500001913FF421AF00BF0198411E002801918E
:100C6000E4D119E700210160FFF7FEFC054600BF53
:100C7000306880077FF50DAFFFF7F6FC401B0228B8
:100C80004FF00300F4D920E7306A20F00100306211
:100C9000306A20F004003062FFF7E6FC054641F2BE
:100CA000883700BF306A800720D5FFF7DDFC401B86
:100CB000B8424FF00300F5D907E700BF306A40F0B3
:100CC00004003062306A40F001003062FFF7CCFC73
:100CD000054641F2883700BF306A800706D4FFF727
:100CE000C3FC401BB842F7D937E000BFB8F1000F92
:100CF0007FF4D5AEF06920F08050F061CFE600BF00
:100D0000306820F480303060306820F4802030601B
:100D1000FFF7AAFC054600BF306880037FF59DAE53
:100D2000FFF7A2FC401B64284FF00300F4D9CCE687
:100D3000306840F480203060306840F480303060AB
:100D4000FFF792FC054600BF306880033FF585AE93
:100D5000FFF78AFC401B6428F6D9032002B0BDE8E7
:100D6000F08100BF206AB0F5803F05D17168A268AC
:100D700021F40031114371607168626A21F47411C9
:100D800011430843706001203866FFF76DFC04468C
:100D9000306880013FF598AEFFF766FC001B022823
:100DA0004FF00300F4D990E6411E0020B0EB116F24
:100DB0001CBF012070474EF21002CEF200025160BB
:100DC0004EF62351CEF20001F0230B700721906004
:100DD000116070477047000070470000B0B582B0E6
:100DE000044600680168C368426901F02F05202DA0
:100DF00003F0200506D12DB1204602B0BDE8B04079
:100E000000F0C2BB5FEA017C1EBF02F0010E03F4DA
:100E1000907212EB0E0253D1226B012A05D111F010
:100E2000100218BF13F0100236D10A0622D513F0B3
:100E300080021FD094F8411021293FD1A168B1F55B
:100E4000805F03D12169002900F07082216A4A1C69
:100E5000226209784160E18C01390A04E1842DD1D4
:100E6000C16821F08001C160C16841F04001C160EA
:100E700002B0B0BD490621D513F040011ED0C168B3
:100E800021F04001C1602021204684F8411002B0C9
:100E9000BDE8B04000F00ABB00210191016801915A
:100EA0004168019101994069400613D4A08DE18DFC
:100EB000E28D002A18BF884240F0BA8102B0B0BD6E
:100EC000CA0718BF13F4807240F0B6804A0700F1D9
:100ED000B980BEE0E06B016849688AB2002AEDD0B3
:100EE000A38D9A42EAD2E1858069202800F09C8097
:100EF000206850E8030F216820F4807041E8030265
:100F0000DAB1206850E8030F216820F4807041E8CE
:100F1000030292B1206850E8030F216820F480702A
:100F200041E803024AB1206850E8030F216820F429
:100F3000807041E80302002ADAD1206850E8050FEA
:100F4000216820F0010041E80502DAB1206850E88C
:100F5000050F216820F0010041E8050292B12068E8
:100F600050E8050F216820F0010041E805024AB170
:100F7000206850E8050F216820F0010041E80502D3
:100F8000002ADAD1206850E8050F216820F04000DF
:100F900041E80502DAB1206850E8050F216820F029
:100FA000400041E8050292B1206850E8050F216831
:100FB00020F0400041E805024AB1206850E8050FE2
:100FC000216820F0400041E80502002ADAD1202003
:100FD00084F8420000202063206850E8030F216855
:100FE00020F0100041E80302DAB1206850E8030F56
:100FF000216820F0100041E8030292B1206850E817
:10100000030F216820F0100041E803024AB1206874
:1010100050E8030F216820F0100041E80302002A85
:10102000DAD1E06BFFF77AF902206063A08DE18DE1
:10103000401A81B2204674E1626C42F0010262649F
:101040004A0706D5BEF1000F03D0626C42F00202DF
:1010500062648A0706D5BEF1000F03D0626C42F0CD
:1010600004026264BCF1000F09D545EA0E02B2FA2F
:1010700082F2520903D1626C42F008026264626C2F
:10108000002A3FF41BAF11F0200118BF002D03D040
:10109000204600F079FA20684069616C00F0400059
:1010A00001F00801401800F0B58000BF206850E84A
:1010B000030F216820F4907041E80302BAB320685E
:1010C00050E8030F216820F4907041E8030272B3E6
:1010D000206850E8030F216820F4907041E8030273
:1010E0002AB3206850E8030F216820F4907041E88B
:1010F0000302002ADAD11AE0206850E8050F2168BF
:1011000020F0010041E80502DAB1206850E8050F3F
:10111000216820F0010041E8050292B1206850E802
:10112000050F216820F0010041E805024AB120685E
:1011300050E8050F216820F0010041E80502002A6F
:10114000DAD1206B012824D1206850E8030F2168F0
:1011500020F0100041E80302DAB1206850E8030FE4
:10116000216820F0100041E8030292B1206850E8A5
:10117000030F216820F0100041E803024AB1206803
:1011800050E8030F216820F0100041E80302002A14
:10119000DAD1202084F842000020206320684069D2
:1011A00040063FD5206850E8050F216820F0400038
:1011B00041E80502DAB1206850E8050F216820F007
:1011C000400041E8050292B1206850E8050F21680F
:1011D00020F0400041E805024AB1206850E8050FC0
:1011E000216820F0400041E80502002ADAD1E06BD6
:1011F000C0B141F27D51C0F600014163FFF7B2F882
:1012000000283FF45BAEE06B416B02B0BDE8B0403C
:10121000084700BF2046FFF7DFFD0020606402B0F2
:10122000B0BD00BF204602B0BDE8B040FFF7D4BD5E
:10123000401A216851E8031F226821F4907142E8A6
:101240000313DBB1216851E8031F226821F4907178
:1012500042E8031393B1216851E8031F226821F487
:10126000907142E803134BB1216851E8031F2268D3
:1012700021F4907142E80313002BDAD1216851E880
:10128000051F226821F0010142E80513DBB1216846
:1012900051E8051F226821F0010142E8051393B1CE
:1012A000216851E8051F226821F0010142E8051379
:1012B0004BB1216851E8051F226821F0010142E885
:1012C0000513002BDAD1202184F84210002121637C
:1012D000216851E8031F226821F0100142E803133E
:1012E000DBB1216851E8031F226821F0100142E8B8
:1012F000031393B1216851E8031F226821F0100104
:1013000042E803134BB1216851E8031F226821F022
:10131000100142E80313002BDAD1022281B22046E9
:10132000626302B0BDE8B040FFF754BD216A31F8F6
:10133000022B6FF35F22426021628CE5002804BF1C
:101340000120704710B5044690F8410028B90020EC
:1013500084F84000204600F063F8242084F841001F
:101360002068D4E90212C36823F40053C360036900
:1013700023F440531A430261D4E904231143C268A1
:10138000194341F20C639A431143C1604169A26958
:1013900021F44071114343F60002C4F2010290426D
:1013A000416103D0FFF7FEFA02E000BFFFF70EFB3A
:1013B0006268192148439100B0FBF1F048F21F51D7
:1013C000C5F2EB11A0FB01235A094FF69C73C0F63E
:1013D000FF7302FB0300322303EB0010A0FB0101AB
:1013E000F02303EA5113206803EB0212C1F3431107
:1013F00011448160016921F490410161416921F04A
:101400002A014161C16841F40051C16000202021DE
:10141000606484F8411084F84210606310BD0000DD
:1014200070B586B040F60004C4F201040068A4F56B
:10143000444100268842049602D006B070BD00BF29
:1014400041F21800C4F20200416802AD41F40031DB
:101450004160416801F4003101910199016841F056
:10146000040101600068294600F004000190019821
:101470000420029002200390032005902046FEF7EE
:10148000DFFF0820CDE90206204629460496FEF734
:10149000D7FF262000210022FFF768F92620FFF75A
:1014A00051F906B070BD00007047000070470000A1
:1014B000FEE7000070B584B041F21800C4F20200EB
:1014C000016841F2000441F0100101600168C4F2BA
:1014D000010401F01001009100990168012241F01E
:1014E0002001016001684FF4005501F020010091D6
:1014F00000990168012641F00401016000684FF481
:10150000005100F00400009000982046FFF7A6F874
:10151000022002900320039069462046CDE9005640
:10152000FEF78EFF04B070BD80B540F2740044F247
:101530000041C2F20000C4F2000100234FF00C0C85
:101540004FF4E13280E80E00C0E90333C0E905C37F
:10155000C361FFF7F3FE002808BF80BDBDE88040EF
:10156000FEF7D6BEFEE70000FEE700007047000071
:1015700070470000FFF77EB870470000406A002106
:10158000C185C184FFF728BC81B090F842102229A0
:1015900021D183680246B3F5805F09D152F8281F34
:1015A00052F8183C002B63D003685B680AE000BF68
:1015B00052F8281F13B90369002BF5D003685B6844
:1015C00003F07F030B70116801311160C18D013987
:1015D0000A04C18502D001B0704700BF0168CA6823
:1015E00022F02002CA60CA6822F48072CA604A6986
:1015F00022F001024A61202180F84210002141635B
:10160000026B012A3CD10163016851E8031F0268A3
:1016100021F0100142E80313DBB1016851E8031F18
:10162000026821F0100142E8031393B1016851E808
:10163000031F026821F0100142E803134BB1016857
:1016400051E8031F026821F0100142E80313002B48
:10165000DAD101680A68D20606D5002200920A682B
:101660000092496800910099818D01B0FFF7B2BBEB
:10167000026852686FF35F2221F8022B8162A5E7AE
:1016800001B0FFF711BF000040F27400C2F2000089
:10169000FFF7A4BBFEE700002DE9F04184B041F262
:1016A0001805C4F20205286840F6000440F0040062
:1016B00028602868C4F2010400F00400009000983B
:1016C000202000904FF0110801270326694620468C
:1016D000CDF8048002970396FEF7B2FE28686946AB
:1016E00040F004002860286800F004000090009892
:1016F0001020CDE900082046CDE90276FEF7A0FED5
:10170000204610210122FEF7A9FF204620210122B8
:10171000FEF7A4FF04B0BDE8F0810000501E0E28C3
:1017200006D841F60202C0F6000232F8102000E0AE
:101730000122012B88BF704740F6000CC4F2010C57
:101740004229604608BF00F58060432911461A46C9
:1017500008BF0CF50060FEF781BF000041F20004F5
:10176000C4F2010420464FF400510122FEF776FF37
:101770004FF4FA70FEF750FE20464FF4005100225D
:10178000FEF76CFF4FF4FA70FEF746FEEAE7000042
:1017900090B0FEF77DFF00240120CDE90B44CDE998
:1017A000094406900A904FF4E0104FF4803102256E
:1017B0000F9006A8CDE90714CDE90D51FFF71AF9EE
:1017C00020B1EFF3108072B6FEE700BF0F20CDE925
:1017D00001054FF48060CDE9040401A802210394BF
:1017E000FFF700F820B1EFF3108072B6FEE700BFFC
:1017F000FFF760FEFFF798FEFEF76AFDFEF76AFD51
:10180000FCE70200040008001000200040008000F7
:1018100000010002000400080010002000400080C9
:101820000000000000000000010203040607080990
:101830000000000001020304010202030405060780
:1018400008090A0B0C0D0E0F10100000701800088C
:101850000000002010000000280100088018000887
:1018600010000020B0060000440100080000000045
:1018700001000000100000000024F400000000003F
:04000005080000ED02
:00000001FF
