:020000040800F2
:10000000C8070020A101000899200008E11F00088E
:1000100095200008FD0D0008C52100080000000023
:10002000000000000000000000000000A120000807
:10003000010E0008000000009D200008A520000817
:10004000BB010008BB010008BB010008BB010008A0
:10005000BB010008BB010008BB010008BB01000890
:10006000BB010008BB010008BB010008BB01000880
:10007000BB010008BB010008BB010008BB01000870
:10008000BB010008BB010008BB010008BB01000860
:10009000BB010008BB010008BB010008BB01000850
:1000A000BB010008BB010008BB010008BB01000840
:1000B000BB010008BB010008BB010008BB01000830
:1000C000BB010008BB010008BB010008BB01000820
:1000D000BB010008BB010008B9210008BB010008F2
:1000E000BB010008BB010008BB01000800F002F8DA
:1000F00000F047F80AA090E8000C82448344AAF17B
:100100000107DA4501D100F03CF8AFF2090EBAE878
:100110000F0013F0010F18BFFB1A43F0010318473B
:10012000C4210000E4210000103A24BF78C878C13F
:10013000FAD8520724BF30C830C144BF04680C60ED
:10014000704700000023002400250026103A28BF35
:1001500078C1FBD8520728BF30C148BF0B60704739
:10016000732900F0BB80002070471FB59DE8030095
:1001700000F00AFC00F0E4F81FBD10B500F049F9EA
:1001800010BD00F079F91146FFF7EFFF02F048F8D3
:1001900000F070FB03B4FFF7F0FF03BC00F072FD4A
:1001A0000948804709480047FEE7FEE7FEE7FEE70B
:1001B000FEE7FEE7FEE7FEE7FEE7FEE70448054947
:1001C000054A064B70470000A9200008ED00000812
:1001D000C8010020C8070020C8030020C803002071
:1001E0000FB4044910B503AA029800F07BF810BCC4
:1001F0005DF814FB6C0000202DE9F0410E4604462A
:10020000002020622046E168884730B3252805D0C9
:10021000D4E901219047206A401CF2E7E1682046BA
:1002200000278847050018D0A5F14100192802D8F9
:1002300020354FF400673246294620462760FFF7F5
:100240008FFF40B1012804D0F61D26F007060836BE
:10025000D8E7361DD6E72846DAE7206ABDE8F08100
:1002600070B50C460546012A05D02878800600D5D1
:10027000EA69002302E0012305E05B1C934202D2FD
:10028000E05C0028F9D1A869E618C01AA861286ABC
:10029000184428622846AFF3008004E0D5E9012124
:1002A00014F8010B9047B442F8D32846AFF300800E
:1002B00070BD70477047704710B5436913B1AFF315
:1002C000008001E0FFF7CCFF012010BD127800F1A3
:1002D00024010A7000224A700122EDE711684FF0F4
:1002E000FF32E9E7074B70B50D467B4400F011F88B
:1002F0000446284600F020F810B14FF0FF3070BDE2
:10030000204670BDA51F000001694A1C02610878E3
:10031000704700B58FB0CDE9013100210591054945
:100320007944CDE9031011466846FFF765FF0FB029
:1003300000BD0000E5FFFFFF007B00F0800070477C
:1003400010B54248542100F0A5FA4148542100F06C
:10035000A1FA4048542100F09DFA3F493B483C4AED
:100360003F4B08603D490A603A491960531C0365D8
:10037000481C1065012008653B48344A39A178447F
:1003800000F0DAF920B9384878440A3800F07BFAEE
:1003900037482F4A35A1784400F0CEF920B93448C7
:1003A00078440A3800F06FFA32482A4A2FA178447C
:1003B00000F0C2F920B92F4878440A3800F063FAF7
:1003C00040232248DC000021224600F092F920B1AF
:1003D00025487844543800F056FA1D4822464023F8
:1003E000002100F086F920B121487844543800F00B
:1003F0004AFA184822461023002100F07AF9002812
:1004000006D01C487844BDE81040563800F03BBA8E
:1004100010BD104870B5006D20F001040B4800F0CD
:1004200003FA0B4800F000FA0A4800F0FDF909E071
:10043000206D20F00105204600F0F6F9204600F07E
:1004400040F82C46002CF3D170BD000018000020AD
:100450006C000020C00000200000002004000020EC
:1004600008000020720000002C1F00007700000030
:10047000181F0000041F0000754600F065FAAE4624
:1004800005006946534620F00700854618B020B5A0
:10049000FFF794FEBDE820404FF000064FF0000744
:1004A0004FF000084FF0000BAC46ACE8C009ACE8D8
:1004B000C009ACE8C009ACE8C00921F007018D46CD
:1004C000704770B50446051F00F042FA0068002C22
:1004D00014BF446870BD002C18BFAC423CBF20461E
:1004E0006468F8D301680A18AA4218BF456003D1AE
:1004F0002A6805461144016028684119A1421CBFC1
:100500006C6070BD6168696021680844286070BDD6
:100510002DE9F05F054617460C46C86820F4201008
:1005200040F48000C860800602D5084600F069FBF0
:10053000E06841F282014FF0FF3A0140022903D006
:10054000204600F0FBFAB9E000F42041B1F5004F7D
:100550000FD1C00306D56168E06A884200D808461A
:10056000606006E02069E0626060606900F0E6F9C2
:10057000A061A0680022EEB200280DDAE1688B05C8
:100580000AD4C043A06041F490302260E06060680B
:10059000411C61600670AAE0E0689146226040F468
:1005A0000050E060206978BB606900F0B9F904F19F
:1005B00024054FF00108A8B1A08910F4407F08D0AD
:1005C000E06900F010FA206118B1E06840F40060C2
:1005D00017E0C4F81C802561E06820F4407040F406
:1005E00080600EE0E06900F0FEF900282061F0D0A4
:1005F000E06840F4006010F4407FE06002D140F415
:100600008070E06020696060E06825696FF0010B30
:10061000C1051ED56168E06A884200D80846411BC2
:1006200004D02246284600F093FAE8BB1FB1E562E9
:10063000C4E9015959E0681CE0626060E069401E4D
:10064000A060E06840F48030E06030462E70BDE885
:10065000F09F17B100F480320AE06068411C6160CD
:100660000670E0680A2E40F48030E06006D0002278
:10067000E16A6068814203D90B4602E00122F7E794
:100680000346B4F80CC05B1B5FEA4C5C04D4D4F89E
:100690001CC09C4500DD02B3814200D80146002BFE
:1006A000A1EB0008E56200E008E0C4E9015907DDBC
:1006B00022461946284600F04BFA08B15046C6E7D4
:1006C000B8F1000F09D0A169E5626560A1EB0800EF
:1006D000A061E06840F01000E06047B16168A06987
:1006E000E562491B08446560A0615846AFE73046A3
:1006F000ADE770B5C468A50713D0650211D4B2F593
:10070000807F09D0B2F5007F06D0B2F5806F08D1A6
:10071000012300F1240106E05D1E6FF07F46B54223
:1007200001D3012070BD0161C361416024F4706197
:100730001143C160002070BD2DE9F0410C46164602
:10074000070047D0104600F06FF82078611C612840
:100750000AD0722802D077283CD102E0012500247B
:1007600005E00225042402E0082448F2020511F8FD
:10077000010B2B2806D0622809D011F8010C74282F
:100780000AD00BE045F0030544F00204EFE745F022
:10079000040544F00104EAE744F010043846214619
:1007A00000F09FF8411C15D00021316171604FF4B9
:1007B0000071F560F1617061200704D530460222B6
:1007C000002100F03FF9306D40F001003065304607
:1007D000BDE8F0810020FBE72DE9F0410D4606461B
:1007E000104C206DC10704D0410804D020F0010452
:1007F000F7E722460EE0542000F0F5F807000ED08F
:10080000206D47F00101084354212065384600F06F
:1008100041F83A4629463046BDE8F0418CE70020D1
:10082000D6E70000180000202DE9F04704464FF0FD
:10083000FF380026C568D4E90497A80718D02046D9
:1008400000F0BCF9384600F056F8002800DA4646B9
:10085000280502D54846FFF734FE4C21204600F01B
:1008600019F8206D20F0010020653046BDE8F087C2
:100870004046FBE710B50446AFF300802046BDE8D4
:100880001040FFF787BC10B500F0E2F9BDE810405A
:1008900000F0D8B94FF0000200B5134694469646D2
:1008A000203922BFA0E80C50A0E80C50B1F1200183
:1008B000BFF4F7AF090728BFA0E80C5048BF0CC031
:1008C0005DF804EB890028BF40F8042B08BF70478F
:1008D00048BF20F8022B11F0804F18BF00F8012B01
:1008E00070470EB5CDE9000100F035FA0290694677
:1008F0000120ABBE0EBD08B5694600900220ABBE1C
:1009000008BD1FB58DE8070069460520ABBE04B0E1
:1009100010BD1FB58DE80F0069460620ABBEF6E797
:1009200008B5694600900920ABBE08BD1CB5CDE9ED
:10093000000169460A20ABBE1CBD704708B5694678
:1009400000900C20ABBE08BD004870471401002089
:10095000004870471C01002070477047704770477F
:1009600038B504460A4600206946AFF300800028E7
:1009700008BF38BD02460099204600F091F90120D9
:1009800038BD012000F0E0B9F8B5AFF300800546AE
:1009900000200C46102000BF0646A819A0420DD921
:1009A000324669460020AFF30080070008BF00F020
:1009B000CBF90098A04218BF0546C419FFF7C8FF3D
:1009C00005600746F01D20F007004619284600F094
:1009D00060F9B44208BFF8BDA21B31463868BDE8D3
:1009E000F84000F05DB970B50646FFF7B1FF056845
:1009F00006F10B0020F00704B4429CBF002070BD3C
:100A00002B466A68BAB11068A04210D304F10801FD
:100A100088423CBF5068586007D351681019416044
:100A20001168091B016058601460101D70BD1346E9
:100A30005268002AE7D121462846FFF791FF002897
:100A4000DED170BD2DE9F041044616460D464769DA
:100A5000007B80072ED03846FFF762FF50BB3EB3C5
:100A6000012E02D0022E25D104E0204600F032F9FA
:100A700005441DE03846FFF761FFE168002841F0BA
:100A80001001E16005DA204600F058F80120BDE8C9
:100A9000F081C9030BD56268E16A914200D8114622
:100AA000A26911442269891A814200DD0846054481
:100AB000002D01DA0220EAE7E16A6068E26881421B
:100AC00006D29103E06203D522F4003141F0100216
:100AD000A6690027AE4213DCE16A814201D90B46C8
:100AE00000E0034603EB060C2369ACEB030CAC45BA
:100AF00006DD814201D98C4600E084469C4505D143
:100B0000A760276042F02000A5620DE0AD1BE669FA
:100B1000AE1B8142A66000D90846C01A281A206080
:100B20005819606022F0200003490840E06000206E
:100B300084F84870ABE70000BFCFD7FFC16821F44D
:100B4000001141F08001C1600021816001607047A7
:100B50002DE9F74F15460C464FF0FF3B3848D76854
:100B6000D2F814A0074209D05046A969FFF7DEFE6B
:100B7000002819DB3248C0430740EF604FF00049BE
:100B80006FF000484C4501D3464600E026460099E8
:100B90003B4650463246FFF7B4FEA96920F00042BA
:100BA000B21A1144A96128B12846FFF7C7FF584679
:100BB000BDE8FE8FA41BE5D10020F9E770B504461F
:100BC0000569C06A6168884200D80846E16821F476
:100BD0002011E160C90312D5A84208D02246411B6A
:100BE0002846FFF7B5FF10B14FF0FF3070BD002071
:100BF000E562C4E90150E06820F48030E060002044
:100C000070BD10B50446C06820F02000E060A16A05
:100C1000A06988420DD02046FFF7D0FFE06820F49D
:100C2000405040F01000E060A06AA0612069E062DE
:100C3000606044F24001E0688843E06010BD00005D
:100C400010000200002801D000F01CB8704700001E
:100C500010B5014602A000F05EF8012010BD0000B2
:100C600053494752545245443A205265646972656B
:100C700063743A2063616E2774206F70656E3A204A
:100C80000000000001491820ABBEFEE7260002006C
:100C9000704700210160C0E90110704710207047C3
:100CA000034640688C46002818BF88423CBF034674
:100CB0004068F8D318681844884207D00CF1030044
:100CC00020F00700001D411A521A0146081D0A6053
:100CD000FFF7F7BB10B50146C268900703D0900636
:100CE00007D5886A0AE000F05DF801210160881EDE
:100CF00010BD8B69486818440B69C01A91F84830D8
:100D00001BB191F84910401A10BD1103FCD5002801
:100D1000FADD401E10BD70B505460C460A2000E005
:100D20006D1C00F037F835B128780028F8D102E0C2
:100D3000641C00F02FF814B120780028F8D1BDE829
:100D400070400A2000F026B810B500F02FF8BDE87A
:100D50001040FFF777BF10B5431C02E010F8011BED
:100D600071B18107FAD14FF0013202C88C1A8C435D
:100D700014EAC211F9D0C01A0A0603D0C01E10BD71
:100D8000C01A10BD0A0401D0801E10BD0902FCD09B
:100D9000401E10BD08B569468DF800000320ABBEAB
:100DA00008BD0000004870471401002010B501285C
:100DB00005D0002103A0FFF7AEFF012010BD09A15F
:100DC000F8E7000053494752544D454D3A204F75BE
:100DD00074206F662068656170206D656D6F727933
:100DE000000000003A2048656170206D656D6F72EB
:100DF0007920636F7272757074656400FEE700009D
:100E0000704700007047000010B540F27414C2F241
:100E10000004204601F0EAF9204643210D22012377
:100E200001F0D8F902A12046BDE8104001F0CCB98C
:100E300048656C6C6F20576F726C64210000000075
:100E4000EFF3108072B600BFFEE70000014690F895
:100E50002100022816D10868D1E90FC3026822F0E8
:100E60000E020260026822F001020260012000FA14
:100E700003F2CCF8042081F821000020002281F840
:100E800020207047042088630120002281F8202060
:100E90007047000080B590F82110022924D1026823
:100EA000116821F00E0111602F211368C4F20201B4
:100EB0008A4240F20401C4F2020123F001031360EC
:100EC00016DD3023C4F202039A421DD04423C4F23B
:100ED00002039A421CD05823C4F202039A421DD145
:100EE0004FF4803322E000BF04218163012080BDE4
:100EF0000823C4F202039A420ED01C23C4F2020358
:100F00009A420BD1102311E04FF480730EE000BF22
:100F10004FF480530AE000BF012307E001F1680CA1
:100F20004FF08073624508BF4FF480130B600121BE
:100F300080F82110426B002180F820100AB1904700
:100F40000021084680BD0000B0B5044600F024F939
:100F5000054640F20C00C2F200000078611C18BF88
:100F6000044400BF00F018F9401BA042FAD3B0BD02
:100F70002DE9F04F82B00E68002E00F0038141F29F
:100F80000042C4F20102042340F2004E904208BF26
:100F900003234FF6FF7CC4F2010E009300240123CB
:100FA000C1F2100C4FF0000A4FF0000949E000BFF9
:100FB000012704F00C030F229A402BEA020207FAE1
:100FC00003F34FEA9A051A4346F82520D1F804B0F6
:100FD00040F20C455FEACB22DEF8082054BF22EA3B
:100FE000080242EA0802C4F20105CEF808202A6885
:100FF0005FEA8B2354BF22EA080242EA08022A6011
:101000005FEA8B33DEF8042054BF22EA080242EA8A
:1010100008025FEACB33CEF80420DEF800204FF060
:10102000010354BF22EA080242EA0802CEF8002077
:101030000E680AF1010A36FA0AF204F1040400F01B
:10104000A18003FA0AF816EA080FF1D04E68664547
:1010500012DC122E56D8DFE806F0350B45495555FF
:1010600055555555555555555555554D510000BF7C
:10107000D1F80C9046E000BF4FF6FF72C1F221029A
:1010800096420FDC0022C1F2110296421AD00022D1
:10109000C1F21202964215D00022C1F221029642FC
:1010A00010D02FE00022C1F2220296420AD0002284
:1010B000C1F23102964205D00022C1F232029642BC
:1010C00020D100BF8A684AB1012A14BFC0F8148039
:1010D000C0F810804FF0080914E000BF4FF0040979
:1010E00010E000BFCA6802F108090BE04FF00009E8
:1010F00008E000BFCA6802F1040903E0CA6802F10F
:101100000C0900BF22460646BAF1080F24BF203A58
:10111000043637680F25954027EA050509FA02F2DB
:101120002A433260CA79D2067FF582AF41F21803B2
:10113000C4F202031A68AEF57E7642F001021A602C
:101140001A6802F001020192019A2AF0030256F88D
:1011500002B040F60002C4F20102904210D040F604
:101160000042C4F2010290423FF422AF41F2000279
:10117000C4F20102009F904208BF022719E700BF96
:10118000002716E702B0BDE8F08F0000002A08BF74
:10119000090401617047000040F2C010C2F2000073
:1011A0000068704740F20C0040F2C011C2F200002B
:1011B000C2F2000100780A6810440860704700001D
:1011C00080B542F20000C4F20200016841F0100153
:1011D0000160032000F08EF8002000F005F800F018
:1011E00027F8002080BD000070B540F20C06C2F266
:1011F000000640F214013278C2F200014FF47A7313
:101200000968B3FBF2F20446B1FBF2F1084600F0C4
:1012100063FB0F2C4FF0010508D838B94FF0FF30B1
:1012200021460022002500F039F87460284670BD80
:1012300082B041F21800C4F202000168022241F0BB
:1012400001010160016801F001010191019941680A
:1012500041F080514160406800F08050009000985B
:101260000420C4F20100016862F31A61016002B057
:1012700070470000002848BF7047C1B200F01F004F
:10128000012202FA00F04EF20012CEF2000242EA0F
:10129000D10121F0030108607047000010B54EF63F
:1012A0000C5CCEF2000CDCF80030C3F3022E8EF0A2
:1012B0000704042C28BF0424BEF103034FF0FF3EB3
:1012C0000EFA04F438BF0023A14399400EFA03F349
:1012D0009A43114300F00F0200F160430901043A00
:1012E00003F564436244002848BF02F10C031970FF
:1012F00010BD00004EF60C51CEF200010A684FF608
:10130000FF031A4060F30A2242F0806040F0FD7053
:10131000086070472DE9F04381B0002800F0858017
:1013200042F20008C4F202080446D8F800000D4654
:1013300000F0070088420CD2D8F8000020F0070027
:101340002843C8F80000D8F8000000F00700A842C1
:101350006BD1206841F204098107C4F2020917D554
:10136000410705D5D9F8001041F4E061C9F8001033
:10137000010705D5D9F8001041F46051C9F80010F3
:10138000D9F80010A26821F0F0011143C9F800104B
:10139000C00741D1D8F8000000F00700A8420CD9DE
:1013A000D8F8000020F007002843C8F80000D8F85B
:1013B000000000F00700A84237D12068410707D598
:1013C000D9F80010E26821F4E0611143C9F8001077
:1013D000000708D5D9F80000216920F4605040EAE0
:1013E000C100C9F80000D9F8002002F00C0008285C
:1013F00041F20020C0F27A0050D142F2D423C2F36D
:101400008341C0F60003595CD2033BD440F6001080
:10141000C0F23D00484341E0606802280AD001283C
:101420002AD159F8041C890308D4012001B0BDE871
:10143000F08300BF59F8041C8901F6D5D9F80010D3
:1014400021F003010843C9F80000FFF7A5FE064696
:1014500041F28837D9F80000616800F00C00B0EB69
:10146000810F97D0FFF798FE801BB842F2D9032076
:1014700001B0BDE8F08300BF59F8041C8907D4D53A
:10148000DCE700BFD9F8002042F2D223C2F3404289
:10149000C0F600039A5C4843B0FBF2F0D9F80010A4
:1014A00042F2BA22C1F30311C0F60002515C40F2CD
:1014B000140220FA01F140F21000C2F200000068AC
:1014C000C2F200021160FFF78FFE002001B0BDE8FC
:1014D000F083000040F2140041F20401C2F2000067
:1014E000C4F202010068096842F2CA22C1F3022173
:1014F000C0F60002515CC8407047000040F2140082
:1015000041F20401C2F20000C4F20201006809685D
:1015100042F2CA22C1F3C221C0F60002515CC840A7
:10152000704700002DE9F04182B0002868D00446E1
:10153000007841F20006C007C4F2020625D07068A8
:1015400000F00C0004281BD0706800F00C00082884
:1015500002D17068C00313D46068002800F068816D
:10156000B0F5A02F00F07C81B0F5803F00F07C81C9
:10157000306820F480303060306820F4802076E1DC
:101580003068800301D56068D0B32078800718D513
:10159000706810F00C0F07D0706800F00C0008287D
:1015A0006ED17068C0036BD43068800702D52069A3
:1015B000012825D13068616920F0F80040EAC100B7
:1015C0003060207800071FD42078400732D4E569C6
:1015D00095B1706800F00C00082840F08F80012D54
:1015E0000ED07068216A00F480328A4208D1616AA4
:1015F00000F47010884203D1002002B0BDE8F081F1
:10160000012002B0BDE8F081A069002862D000206E
:10161000C4F242200121C0F88014FFF7BDFD054649
:10162000706A800700F18C80FFF7B6FD401B02282E
:10163000F6D92AE1F06910F0805808D1F06940F03D
:101640008050F061F06900F080500090009847F2FF
:101650000007C4F200073868C00529D4386840F490
:1016600080703860FFF798FD054600BF3868C005F8
:101670001ED4FFF791FD401B6428F7D905E100BF98
:101680002069002840F20000C4F2422000F082806D
:1016900001210160FFF780FD054600BF306880072B
:1016A0003FF588AFFFF778FD401B0228F6D9ECE044
:1016B000E068002800F08080052800F0978001286D
:1016C00000F09880306A20F001003062306A20F02B
:1016D000040092E00020C4F242200021C0F88014EF
:1016E000FFF75AFD054600BF706A80077FF56CAFB3
:1016F000FFF752FD401B0228F6D9C6E00027C4F2CE
:10170000422700203866FFF747FD022D05460BD122
:101710003068800140F1BE80FFF73EFD401B02288B
:101720004FF00300F4D968E7306880017FF564AFBB
:10173000FFF732FD401B02284FF00300F4D95CE7AD
:1017400040F21400C2F20000006844F6D351C1F226
:101750006201A0FB0101480A019000BF00BF01988F
:10176000411E002801913FF42FAF00BF0198411E98
:10177000002801913FF428AF00BF0198411E0028C6
:1017800001913FF421AF00BF0198411E0028019153
:10179000E4D119E700210160FFF7FEFC054600BF18
:1017A000306880077FF50DAFFFF7F6FC401B02287D
:1017B0004FF00300F4D920E7306A20F001003062D6
:1017C000306A20F004003062FFF7E6FC054641F283
:1017D000883700BF306A800720D5FFF7DDFC401B4B
:1017E000B8424FF00300F5D907E700BF306A40F078
:1017F00004003062306A40F001003062FFF7CCFC38
:10180000054641F2883700BF306A800706D4FFF7EB
:10181000C3FC401BB842F7D937E000BFB8F1000F56
:101820007FF4D5AEF06920F08050F061CFE600BFC4
:10183000306820F480303060306820F480203060E0
:10184000FFF7AAFC054600BF306880037FF59DAE18
:10185000FFF7A2FC401B64284FF00300F4D9CCE64C
:10186000306840F480203060306840F48030306070
:10187000FFF792FC054600BF306880033FF585AE58
:10188000FFF78AFC401B6428F6D9032002B0BDE8AC
:10189000F08100BF206AB0F5803F05D17168A26871
:1018A00021F40031114371607168626A21F474118E
:1018B00011430843706001203866FFF76DFC044651
:1018C000306880013FF598AEFFF766FC001B0228E8
:1018D0004FF00300F4D990E6411E0020B0EB116FE9
:1018E0001CBF012070474EF21002CEF20002516080
:1018F0004EF62351CEF20001F0230B7007219060C9
:10190000116070477047000070470000B0B582B0AA
:10191000044600680168C368426901F02F05202D64
:1019200003F0200506D12DB1204602B0BDE8B0403D
:1019300000F0C2BB5FEA017C1EBF02F0010E03F49F
:10194000907212EB0E0253D1226B012A05D111F0D5
:10195000100218BF13F0100236D10A0622D513F078
:1019600080021FD094F8411021293FD1A168B1F520
:10197000805F03D12169002900F07082216A4A1C2E
:10198000226209784160E18C01390A04E1842DD199
:10199000C16821F08001C160C16841F04001C160AF
:1019A00002B0B0BD490621D513F040011ED0C16878
:1019B00021F04001C1602021204684F8411002B08E
:1019C000BDE8B04000F00ABB00210191016801911F
:1019D0004168019101994069400613D4A08DE18DC1
:1019E000E28D002A18BF884240F0BA8102B0B0BD33
:1019F000CA0718BF13F4807240F0B6804A0700F19E
:101A0000B980BEE0E06B016849688AB2002AEDD077
:101A1000A38D9A42EAD2E1858069202800F09C805B
:101A2000206850E8030F216820F4807041E8030229
:101A3000DAB1206850E8030F216820F4807041E893
:101A4000030292B1206850E8030F216820F48070EF
:101A500041E803024AB1206850E8030F216820F4EE
:101A6000807041E80302002ADAD1206850E8050FAF
:101A7000216820F0010041E80502DAB1206850E851
:101A8000050F216820F0010041E8050292B12068AD
:101A900050E8050F216820F0010041E805024AB135
:101AA000206850E8050F216820F0010041E8050298
:101AB000002ADAD1206850E8050F216820F04000A4
:101AC00041E80502DAB1206850E8050F216820F0EE
:101AD000400041E8050292B1206850E8050F2168F6
:101AE00020F0400041E805024AB1206850E8050FA7
:101AF000216820F0400041E80502002ADAD12020C8
:101B000084F8420000202063206850E8030F216819
:101B100020F0100041E80302DAB1206850E8030F1A
:101B2000216820F0100041E8030292B1206850E8DB
:101B3000030F216820F0100041E803024AB1206839
:101B400050E8030F216820F0100041E80302002A4A
:101B5000DAD1E06BFFF77AF902206063A08DE18DA6
:101B6000401A81B2204674E1626C42F00102626464
:101B70004A0706D5BEF1000F03D0626C42F00202A4
:101B800062648A0706D5BEF1000F03D0626C42F092
:101B900004026264BCF1000F09D545EA0E02B2FAF4
:101BA00082F2520903D1626C42F008026264626CF4
:101BB000002A3FF41BAF11F0200118BF002D03D005
:101BC000204600F079FA20684069616C00F040001E
:101BD00001F00801401800F0B58000BF206850E80F
:101BE000030F216820F4907041E80302BAB3206823
:101BF00050E8030F216820F4907041E8030272B3AB
:101C0000206850E8030F216820F4907041E8030237
:101C10002AB3206850E8030F216820F4907041E84F
:101C20000302002ADAD11AE0206850E8050F216883
:101C300020F0010041E80502DAB1206850E8050F04
:101C4000216820F0010041E8050292B1206850E8C7
:101C5000050F216820F0010041E805024AB1206823
:101C600050E8050F216820F0010041E80502002A34
:101C7000DAD1206B012824D1206850E8030F2168B5
:101C800020F0100041E80302DAB1206850E8030FA9
:101C9000216820F0100041E8030292B1206850E86A
:101CA000030F216820F0100041E803024AB12068C8
:101CB00050E8030F216820F0100041E80302002AD9
:101CC000DAD1202084F84200002020632068406997
:101CD00040063FD5206850E8050F216820F04000FD
:101CE00041E80502DAB1206850E8050F216820F0CC
:101CF000400041E8050292B1206850E8050F2168D4
:101D000020F0400041E805024AB1206850E8050F84
:101D1000216820F0400041E80502002ADAD1E06B9A
:101D2000C0B142F2AD01C0F600014163FFF7B2F865
:101D300000283FF45BAEE06B416B02B0BDE8B04001
:101D4000084700BF2046FFF7DFFD0020606402B0B7
:101D5000B0BD00BF204602B0BDE8B040FFF7D4BD23
:101D6000401A216851E8031F226821F4907142E86B
:101D70000313DBB1216851E8031F226821F490713D
:101D800042E8031393B1216851E8031F226821F44C
:101D9000907142E803134BB1216851E8031F226898
:101DA00021F4907142E80313002BDAD1216851E845
:101DB000051F226821F0010142E80513DBB121680B
:101DC00051E8051F226821F0010142E8051393B193
:101DD000216851E8051F226821F0010142E805133E
:101DE0004BB1216851E8051F226821F0010142E84A
:101DF0000513002BDAD1202184F842100021216341
:101E0000216851E8031F226821F0100142E8031302
:101E1000DBB1216851E8031F226821F0100142E87C
:101E2000031393B1216851E8031F226821F01001C8
:101E300042E803134BB1216851E8031F226821F0E7
:101E4000100142E80313002BDAD1022281B22046AE
:101E5000626302B0BDE8B040FFF754BD216A31F8BB
:101E6000022B6FF35F22426021628CE5002804BFE1
:101E70000120704710B5044690F8410028B90020B1
:101E800084F84000204600F063F8242084F84100E4
:101E90002068D4E90212C36823F40053C3600369C5
:101EA00023F440531A430261D4E904231143C26866
:101EB000194341F20C639A431143C1604169A2691D
:101EC00021F44071114343F60002C4F20102904232
:101ED000416103D0FFF7FEFA02E000BFFFF70EFBFF
:101EE0006268192148439100B0FBF1F048F21F519C
:101EF000C5F2EB11A0FB01235A094FF69C73C0F603
:101F0000FF7302FB0300322303EB0010A0FB01016F
:101F1000F02303EA5113206803EB0212C1F34311CB
:101F200011448160016921F490410161416921F00E
:101F30002A014161C16841F40051C16000202021A3
:101F4000606484F8411084F84210606310BD0000A2
:101F500070B586B040F60004C4F201040068A4F530
:101F6000444100268842049602D006B070BD00BFEE
:101F700041F21800C4F20200416802AD41F40031A0
:101F80004160416801F4003101910199016841F01B
:101F9000040101600068294600F0040001900198E6
:101FA0000420029002200390032005902046FEF7B3
:101FB000DFFF0820CDE90206204629460496FEF7F9
:101FC000D7FF262000210022FFF768F92620FFF71F
:101FD00051F906B070BD0000704700007047000066
:101FE000FEE7000070B584B041F21800C4F20200B0
:101FF000016841F2000441F0100101600168C4F27F
:10200000010401F01001009100990168012241F0E2
:102010002001016001684FF4005501F0200100919A
:1020200000990168012641F00401016000684FF445
:10203000005100F00400009000982046FFF7A6F839
:10204000022002900320039069462046CDE9005605
:10205000FEF78EFF04B070BD80B540F2781044F2F8
:102060000041C2F20000C4F2000100234FF00C0C4A
:102070004FF4E13280E80E00C0E90333C0E905C344
:10208000C361FFF7F3FE002808BF80BDBDE88040B4
:10209000FEF7D6BEFEE70000FEE700007047000036
:1020A00070470000FFF77EB870470000406A0021CB
:1020B000C185C184FFF728BC81B090F84210222965
:1020C00021D183680246B3F5805F09D152F8281FF9
:1020D00052F8183C002B63D003685B680AE000BF2D
:1020E00052F8281F13B90369002BF5D003685B6809
:1020F00003F07F030B70116801311160C18D01394C
:102100000A04C18502D001B0704700BF0168CA68E7
:1021100022F02002CA60CA6822F48072CA604A694A
:1021200022F001024A61202180F84210002141631F
:10213000026B012A3CD10163016851E8031F026868
:1021400021F0100142E80313DBB1016851E8031FDD
:10215000026821F0100142E8031393B1016851E8CD
:10216000031F026821F0100142E803134BB101681C
:1021700051E8031F026821F0100142E80313002B0D
:10218000DAD101680A68D20606D5002200920A68F0
:102190000092496800910099818D01B0FFF7B2BBB0
:1021A000026852686FF35F2221F8022B8162A5E773
:1021B00001B0FFF711BF000040F27810C2F200003A
:1021C000FFF7A4BBFEE7000001A0FEF709B800BFBF
:1021D00025730000012B88BF704740F6000091B2C4
:1021E000C4F201001A46FEF7D1BF000041F200041C
:1021F000C4F2010420464FF400510122FEF7C6FF4D
:102200004FF4FA70FEF7A0FE20464FF40051002272
:10221000FEF7BCFF4FF4FA70FEF796FEEAE7000007
:1022200090B0FEF7CDFF00240120CDE90B44CDE9AD
:10223000094406900A904FF4E0104FF480310225D3
:102240000F9006A8CDE90714CDE90D51FFF76AF903
:1022500020B1EFF3108072B6FEE700BF0F20CDE98A
:1022600001054FF48060CDE9040401A80221039424
:10227000FFF750F820B1EFF3108072B6FEE700BF11
:10228000FFF7B0FEFFF7E8FEFEF7BCFDFEF7BCFD72
:10229000FCE78A68002A02DC0022FEF739B9521EE8
:1022A0008A604A68C0B2531C4B60107070473A7421
:1022B00074003A7474003A74740000000000000066
:1022C00000000102030406070809000000000102E3
:1022D0000304010202030405060708090A0B0C0D9A
:1022E0000E0F101008230008000000201800000046
:1022F000280100082023000818000020B007000073
:102300004401000800000000000000000000000080
:102310000000000001000000100000000024F40094
:04000005080000ED02
:00000001FF
